:020000040800F2
:100000000000022075700008F5450008FD45000855
:10001000054600080D4600081546000800000000CF
:100020000000000000000000000000001D46000865
:100030002B4600080000000039460008474600082B
:10004000C5700008C5700008C5700008C5700008BC
:10005000C5700008C5700008C5700008C5700008AC
:10006000C5700008C5700008C5700008C57000089C
:10007000C5700008C5700008C5700008C57000088C
:10008000C5700008C5700008C5700008C57000087C
:10009000C5700008C5700008C5700008C57000086C
:1000A000C5700008C5700008C5700008C57000085C
:1000B000C5700008C5700008C5700008C57000084C
:1000C000C5700008C5700008C5700008C57000083C
:1000D000C5700008C5700008C5700008C57000082C
:1000E000C5700008C5700008C5700008C57000081C
:1000F000C5700008C5700008C5700008C57000080C
:10010000C5700008C5700008C5700008C5700008FB
:10011000C5700008C5700008C5700008C5700008EB
:10012000BD200008CB200008C5700008D9200008B9
:10013000C57000080000000000000000C570000845
:10014000C5700008C5700008C5700008C5700008BB
:10015000C5700008C5700008C5700008C5700008AB
:10016000C5700008C5700008C5700008C57000089B
:10017000C5700008C5700008C570000800000000C8
:1001800000000000C5700008000000000000000032
:10019000C57000080000000000000000C5700008E5
:1001A000000000000000000000000000C570000812
:1001B000C5700008C5700008C5700008C57000084B
:0401C000C5700008FE
:1001C80010B5054C237833B9044B13B10448AFF389
:1001D80000800123237010BDA8000020000000004B
:1001E8002071000808B5034B1BB103490348AFF35E
:1001F800008008BD00000000AC000020207100084D
:1002080081F0004102E000BF83F0004330B54FEABF
:1002180041044FEA430594EA050F08BF90EA020F2C
:100228001FBF54EA000C55EA020C7FEA645C7FEABF
:10023800655C00F0E2804FEA5454D4EB5555B8BFE2
:100248006D420CDD2C4480EA020281EA030382EA53
:10025800000083EA010180EA020281EA0303362DE5
:1002680088BF30BD11F0004F4FEA01314FF4801CB8
:100278004CEA113102D0404261EB410113F0004FCA
:100288004FEA03334CEA133302D0524263EB430381
:1002980094EA050F00F0A780A4F10104D5F1200E1F
:1002A8000DDB02FA0EFC22FA05F2801841F100017A
:1002B80003FA0EF2801843FA05F359410EE0A5F14E
:1002C80020050EF1200E012A03FA0EFC28BF4CF07F
:1002D800020C43FA05F3C01851EBE37101F0004535
:1002E80007D54FF0000EDCF1000C7EEB00006EEB42
:1002F8000101B1F5801F1BD3B1F5001F0CD34908CC
:100308005FEA30004FEA3C0C04F101044FEA445222
:1003180012F5800F80F09A80BCF1004F08BF5FEAA9
:10032800500C50F1000041EB045141EA050130BD89
:100338005FEA4C0C404141EB0101013C28BFB1F59B
:10034800801FE9D291F0000F04BF01460020B1FAE6
:1003580081F308BF2033A3F10B03B3F120020CDAB9
:100368000C3208DD02F1140CC2F10C0201FA0CF097
:1003780021FA02F10CE002F11402D8BFC2F1200CFC
:1003880001FA02F120FA0CFCDCBF41EA0C019040B2
:10039800E41AA2BF01EB0451294330BD6FEA0404FB
:1003A8001F3C1CDA0C340EDC04F11404C4F12002E6
:1003B80020FA04F001FA02F340EA030021FA04F3F8
:1003C80045EA030130BDC4F10C04C4F1200220FA4F
:1003D80002F001FA04F340EA0300294630BD21FA8D
:1003E80004F0294630BD94F0000F83F4801306BF53
:1003F80081F480110134013D4EE77FEA645C18BF47
:100408007FEA655C29D094EA050F08BF90EA020FDD
:1004180005D054EA000C04BF1946104630BD91EAD5
:10042800030F1EBF0021002030BD5FEA545C05D1D8
:100438004000494128BF41F0004130BD14F5800417
:100448003CBF01F5801130BD01F0004545F0FE418B
:1004580041F470014FF0000030BD7FEA645C1ABFC0
:10046800194610467FEA655C1CBF0B46024650EAF7
:10047800013406BF52EA033591EA030F41F4002123
:1004880030BD00BF90F0000F04BF0021704730B5A9
:100498004FF4806404F132044FF000054FF000017E
:1004A80050E700BF90F0000F04BF0021704730B53F
:1004B8004FF4806404F1320410F0004548BF404214
:1004C8004FF000013EE700BF42004FEAE2014FEA69
:1004D80031014FEA02701FBF12F07F4393F07F4F44
:1004E80081F06051704732F07F4208BF704793F047
:1004F8007F4F04BF41F40021704730B54FF460745A
:1005080001F0004521F000411CE700BF50EA01025C
:1005180008BF704730B54FF000050AE050EA010205
:1005280008BF704730B511F0004502D5404261EB75
:1005380041014FF4806404F132045FEA915C3FF4B6
:10054800D8AE4FF003025FEADC0C18BF03325FEA53
:10055800DC0C18BF033202EBDC02C2F1200300FA04
:1005680003FC20FA02F001FA03FE40EA0E0021FA29
:1005780002F11444BDE600BF70B54FF0FF0C4CF417
:10058800E06C1CEA11541DBF1CEA135594EA0C0FC9
:1005980095EA0C0F00F0DEF82C4481EA030621EA04
:1005A8004C5123EA4C5350EA013518BF52EA03353F
:1005B80041F4801143F4801338D0A0FB02CE4FF0F1
:1005C8000005E1FB02E506F00042E0FB03E54FF021
:1005D8000006E1FB03569CF0000F18BF4EF0010E19
:1005E800A4F1FF04B6F5007F64F5407404D25FEA15
:1005F8004E0E6D4146EB060642EAC62141EA5551C8
:100608004FEAC52040EA5E504FEACE2EB4F1FD0C09
:1006180088BFBCF5E06F1ED8BEF1004F08BF5FEA87
:10062800500E50F1000041EB045170BD06F0004639
:1006380046EA010140EA020081EA0301B4EB5C04E6
:10064800C2BFD4EB0C0541EA045170BD41F48011DE
:100658004FF0000E013C00F3AB8014F1360FDEBF03
:10066800002001F0004170BDC4F10004203C35DADF
:100678000C341BDC04F11404C4F1200500FA05F362
:1006880020FA04F001FA05F240EA020001F0004203
:1006980021F0004110EBD37021FA04F642EB060179
:1006A8005EEA430E08BF20EAD37070BDC4F10C04A3
:1006B800C4F1200500FA04F320FA05F001FA04F267
:1006C80040EA020001F0004110EBD37041F1000153
:1006D8005EEA430E08BF20EAD37070BDC4F120055E
:1006E80000FA05F24EEA020E20FA04F301FA05F2C6
:1006F80043EA020321FA04F001F0004121FA04F26E
:1007080020EA020000EBD3705EEA430E08BF20EA3D
:10071800D37070BD94F0000F0FD101F00046400077
:1007280041EB010111F4801F08BF013CF7D041EAF9
:10073800060195F0000F18BF704703F000465200FD
:1007480043EB030313F4801F08BF013DF7D043EACE
:100758000603704794EA0C0F0CEA135518BF95EA84
:100768000C0F0CD050EA410618BF52EA4306D1D10B
:1007780081EA030101F000414FF0000070BD50EA2A
:10078800410606BF1046194652EA430619D094EAB4
:100798000C0F02D150EA013613D195EA0C0F05D19E
:1007A80052EA03361CBF104619460AD181EA0301F2
:1007B80001F0004141F0FE4141F470014FF00000AA
:1007C80070BD41F0FE4141F4780170BD70B54FF045
:1007D800FF0C4CF4E06C1CEA11541DBF1CEA1355C5
:1007E80094EA0C0F95EA0C0F00F0A7F8A4EB0504A7
:1007F80081EA030E52EA03354FEA013100F088809E
:100808004FEA03334FF0805545EA131343EA126366
:100818004FEA022245EA111545EA10654FEA00261B
:100828000EF000419D4208BF964244F1FD0404F5D4
:10083800407402D25B084FEA3202B61A65EB030530
:100848005B084FEA32024FF480104FF4002CB6EBED
:10085800020E75EB030E22BFB61A754640EA0C006D
:100868005B084FEA3202B6EB020E75EB030E22BFAD
:10087800B61A754640EA5C005B084FEA3202B6EBEE
:10088800020E75EB030E22BFB61A754640EA9C00AD
:100898005B084FEA3202B6EB020E75EB030E22BF7D
:1008A800B61A754640EADC0055EA060E18D04FEA3B
:1008B800051545EA16754FEA06164FEAC30343EADB
:1008C80052734FEAC2025FEA1C1CC0D111F4801FA8
:1008D8000BD141EA00014FF000004FF0004CB6E7A1
:1008E80011F4801F04BF01430020B4F1FD0C88BF40
:1008F800BCF5E06F3FF6AFAEB5EB030C04BFB6EB4B
:10090800020C5FEA500C50F1000041EB045170BD3D
:100918000EF0004E4EEA113114EB5C04C2BFD4EB6A
:100928000C0541EA045170BD41F480114FF0000EEE
:10093800013C90E645EA060E8DE60CEA135594EA6A
:100948000C0F08BF95EA0C0F3FF43BAF94EA0C0F6D
:100958000AD150EA01347FF434AF95EA0C0F7FF4E2
:1009680025AF104619462CE795EA0C0F06D152EA36
:1009780003353FF4FDAE1046194622E750EA41061A
:1009880018BF52EA43067FF4C5AE50EA41047FF42B
:100998000DAF52EA43057FF4EBAE12E74FF0FF3C90
:1009A80006E000BF4FF0010C02E000BF4FF0010C61
:1009B8004DF804CD4FEA410C7FEA6C5C4FEA430CDA
:1009C80018BF7FEA6C5C1BD001B050EA410C0CBF29
:1009D80052EA430C91EA030F02BF90EA020F00208B
:1009E800704710F1000F91EA030F58BF994208BFF2
:1009F80090422CBFD8176FEAE37040F001007047AF
:100A08004FEA410C7FEA6C5C02D150EA013C07D105
:100A18004FEA430C7FEA6C5CD6D152EA033CD3D050
:100A28005DF8040B704700BF8446104662468C464A
:100A38001946634600E000BF01B5FFF7B7FF00287D
:100A480048BF10F1000F01BD4DF808EDFFF7F4FFA6
:100A58000CBF012000205DF808FB00BF4DF808ED31
:100A6800FFF7EAFF34BF012000205DF808FB00BF54
:100A78004DF808EDFFF7E0FF94BF012000205DF876
:100A880008FB00BF4DF808EDFFF7CEFF94BF01202B
:100A980000205DF808FB00BF4DF808EDFFF7C4FF24
:100AA80034BF012000205DF808FB00BF4FEA410277
:100AB80012F5001215D211D56FF47873B3EB6252A8
:100AC80012D94FEAC12343F0004343EA505311F0CF
:100AD800004F23FA02F018BF404270474FF0000061
:100AE800704750EA013005D111F0004008BF6FF09F
:100AF800004070474FF00000704700BF4A0011D215
:100B080012F5001211D20DD56FF47873B3EB62525F
:100B18000ED44FEAC12343F0004343EA505323FA6B
:100B280002F070474FF00000704750EA013002D1E0
:100B38004FF0FF3070474FF00000704753B94AB983
:100B4800002908BF00281CBF4FF0FF314FF0FF30CD
:100B580000F088B9ADF1080C6DE904CE00F006F894
:100B6800DDF804E0DDE9022304B070472DE9F04721
:100B7800089D8E4604468846002B4AD18A4217466D
:100B880062D9B2FA82F64EB1C6F1200301FA06F82C
:100B980020FA03F3B74043EA0808B4404FEA174E77
:100BA8001FFA87FCB8FBFEF1230C0EFB118843EA01
:100BB800084301FB0CF29A4209D9FB1801F1FF30F6
:100BC80080F0EA809A4240F2E78002393B449A1A60
:100BD800A3B2B2FBFEF00EFB102243EA024300FB75
:100BE8000CFC9C4509D9FB1800F1FF3280F0D68037
:100BF8009C4540F2D3803B44023840EA0140A3EBD5
:100C08000C0300211DB1F3400022C5E90032BDE804
:100C1800F0878B4205D90DB1C5E9000100210846CE
:100C2800F5E7B3FA83F1002946D1734502D382422E
:100C380000F20581841A6EEB030201209046002D14
:100C4800E5D0C5E90048E2E7002A00F09080B2FA52
:100C580082F6002E40F0A4808A1A030C4FEA174E41
:100C680080B2BCB20121B2FBFEFC0EFB1C2243EA9F
:100C7800024304FB0CF29A4207D9FB180CF1FF3827
:100C880002D29A4200F2E080C4469B1AB3FBFEF2FD
:100C98000EFB123340EA034302FB04F49C4207D9DB
:100CA800FB1802F1FF3002D29C4200F2CA800246D1
:100CB8001B1B42EA0C40A5E7C1F120068B4022FA33
:100CC80006F71F430EFA01F420FA06F32EFA06FE81
:100CD8004FEA1749234300FA01F81FFA87FCBEFBC5
:100CE800F9F01C0C09FB10EE44EA0E4400FB0CFE64
:100CF800A64502FA01F209D93C1900F1FF3A80F041
:100D08009C80A64540F2998002383C44A4EB0E042E
:100D18001FFA83FEB4FBF9F309FB13444EEA0444BB
:100D280003FB0CFCA44508D93C1903F1FF3E80F0F5
:100D38008280A4457FD9023B3C4443EA0040A4EBAF
:100D48000C04A0FB02EC64457346E14662D35FD015
:100D58005DB1B8EB030264EB090404FA06F622FA63
:100D680001F31E43CC40C5E9006400214FE7B1FB05
:100D7800F2FC010C41EA0E4180B240EA01423B46D6
:100D880038463C46B846BE462026B1FBF7F1A2EBF2
:100D9800080241EA0C4166E7014618E710462CE7CD
:100DA800C6F120022EFA02F3B740B14020FA02F24F
:100DB8004FEA174E0A43B3FBFEF8BCB20EFB1833DA
:100DC800110C41EA034108FB04F9B04089454FEA98
:100DD800104380B23ED9791808F1FF3C01D2894509
:100DE8001FD8A1EB0901B1FBFEF909FB04F80EFBC2
:100DF800191192B242EA0142424529D2BA1809F1C0
:100E0800FF31C4D24245C2D2A9F102013A44BEE739
:100E1800F0459DD2BEEB02036CEB070C0138E146AE
:100E280096E7A7EB09094944A8F1020CB1FBFEF9C2
:100E380009FB04F8DBE773467FE7504666E7084698
:100E4800FDE63B44023A33E7ACF1020C3B441CE7B5
:100E580049469CE7A1EB0901C446B1FBFEF909FB31
:100E680004F8C4E7704700BF80B582B000AF002324
:100E7800BB710023FB715B4B1B78022B3CD8012014
:100E880000F062FE00BF012001F016F80346032BB4
:100E9800F9D15549012000F061FF524B1B781A46E1
:100EA800514B1988514B23F812104E4B1B781A4698
:100EB8004D4B59884E4B23F812104A4B1B781A4653
:100EC800494B99884B4B23F81210464B1B781A460E
:100ED800454BD988484B23F81210424B1B781A46C9
:100EE800414B1989454B23F812103E4B1B780133AF
:100EF800DAB23C4B1A7070E003213C4800F002F96A
:100F080003461A463E4B1A800321394800F0FAF886
:100F180003461A463A4B5A800321364800F0F2F845
:100F280003461A46364B9A800321334800F0EAF804
:100F380003461A46324BDA800321304800F0E2F8C3
:100F480003461A462E4B1A81264B00221A702D4B47
:100F580093F82630DBB2BB71BB79002B03D0284B4A
:100F68001A88284B9A81274B93F82330DBB2BB7140
:100F7800BB79002B03D0224B5A88224BDA81214BB4
:100F880093F82430DBB2BB71BB79002B03D01C4B28
:100F98009A881C4B1A821B4B93F82530DBB2BB7125
:100FA800BB79002B03D0164BDA88164B5A82154BA7
:100FB80093F82730DBB2BB71BB79002B0DD0104BF7
:100FC8001B89B3F57A7F02D20123FB7101E000236C
:100FD800FB71FB799AB20B4B9A8200BF0837BD466A
:100FE80080BD00BF29010020E4000020F00000209F
:100FF800F800002000010020080100201001002056
:1010080018010020D007002080B500AF344B1B78B2
:10101800022B19D8002000F097FD314B1B781A4697
:10102800304B1988304B23F812102D4B1B781A4679
:101038002C4B59882D4B23F81210294B1B78013360
:10104800DAB2274B1A7048E00321274800F05AF813
:1010580003461A46264B1A800321244800F052F80A
:1010680003461A46224B5A80214B1B881A4640F6E3
:10107800025302FB03F31A461E4BA3FB0213D21AB8
:1010880052081344DB0A1C4A1360194B5B881A4642
:1010980040F6025302FB03F31A46164BA3FB021356
:1010A800D21A52081344DB0A144A13600C4B00226C
:1010B8001A70114B1B689BB21A46520013445B000E
:1010C8009AB20F4BDA820D4B1B689BB21A4652003C
:1010D80013445B009AB20A4B1A8300BF80BD00BF5D
:1010E80028010020C4000020C8000020D0000020F3
:1010F80024010020010110002C01002030010020F3
:10110800D007002080B485B000AF78600B46FB7034
:101118000023FB730023BB600023FB730BE0FB7B06
:101128005B007A6813441B881A46BB681344BB608B
:10113800FB7B0133FB73FA7BFB789A42EFD3FB7896
:10114800BA68B2FBF3F3BB60BB689BB218461437AE
:10115800BD465DF8047B704780B500AF064800F0D7
:101168002FFB0649002000F0B3FC0549012000F0E0
:10117800AFFC00BF80BD00BF8C710008C400002018
:10118800D800002080B500AFFFF76EFEFFF73CFFE8
:1011980000BF80BD80B584B000AF0346FB717A4BB9
:1011A8001968FA7913465B0013440B44BB60BB68AB
:1011B8001B78184601F0C2F90346FB73BB685B78DD
:1011C800002B03D0FB7B83F00103FB73FB7B002B1D
:1011D8002AD1FA796D4913465B0013445B000B442E
:1011E80002331B88002B14D0FA79684913465B0038
:1011F80013445B000B4402331B88013B98B26349DC
:1012080013465B0013445B000B44023302461A800A
:101218003CE0FA795D4913465B0013445B000B44DC
:10122800023300221A8031E0FB7B012B2ED1FA79A0
:10123800564913465B0013445B000B4402331B887A
:10124800BA689278934214D2FA79504913465B00EF
:1012580013445B000B4402331B88013398B24B499B
:1012680013465B0013445B000B44023302461A80AA
:101278000CE0BB689B78FA791846444913465B0032
:1012880013445B000B44023302461A80FA793F4943
:1012980013465B0013445B000B4402331B88002B8E
:1012A80009D1FA79394913465B0013445B000B44B2
:1012B80000221A7028E0FA79344913465B00134477
:1012C8005B000B4402331B88BA689278934209D1B9
:1012D800FA792E4913465B0013445B000B44012244
:1012E8001A7011E0F979FA7928480B465B000B442B
:1012F8005B00034401331878244913465B00134408
:101308005B000B4402461A70FA79204913465B00C9
:1013180013445B000B4401331B78002B1DD1FA7971
:101328001A4913465B0013445B000B441B78012BDE
:1013380013D1FA79154913465B0013445B000B443B
:1013480004331B88013398B2104913465B001344D9
:101358005B000B44043302461A80F979FA790B488A
:101368000B465B000B445B0003441878074913469F
:101378005B0013445B000B44013302461A7000BF44
:101388001037BD4680BD00BF4871000834010020F9
:1013980080B588B000AF78607B68002B65D007F116
:1013A800080300221A609A800023FB7735E07B68E7
:1013B8001968FA7F13465B0013440B443B613B6991
:1013C8001B78184601F0BAF80346BB773B695B788F
:1013D800002B03D0BB7F83F00103BB77BB7F3B723D
:1013E800BB7F7B72BB7F002B02D03B699B7800E000
:1013F80000237B810023BB81FA7F1E4913465B00D3
:1014080013445B000B441A4607F108031868106080
:101418009B889380FB7F0133FB777B681B7AFA7F7D
:101428009A42C4D300237B7719E07B6859687A7F96
:1014380013465B0013440B44BB61BB695B78012B0B
:1014480014BF01230023DBB2FB75BB691B78FA7D4F
:101458001146184601F09AF87B7F01337B777B6849
:101468005B7A7A7F9A42E0D300E000BF2037BD461E
:1014780080BD00BF3401002080B584B000AF0346B2
:101488000A46FB711346BB71FB79002B28D1164B1A
:101498005968FA7913465B0013440B44BB60002378
:1014A800FB73BB79012B08D1BB685B78012B0CBFA0
:1014B80001230023DBB2FB730AE0BB79002B07D1C1
:1014C800BB685B78012B14BF01230023DBB2FB73DD
:1014D800BB681B78FA7B1146184601F057F800E004
:1014E80000BF1037BD4680BD4871000880B582B086
:1014F80000AF0023BB710023FB7171E0FB79184634
:10150800FFF748FEFB79022B42D0022B5EDC002B52
:1015180002D0012B1ED059E0354B93F82030DBB2B6
:10152800BB71BB79002B53D0FA79324913465B0063
:1015380013445B000B441A782D4B1A70FA792D4925
:1015480013465B0013445B000B4404331A88284B92
:101558005A803DE0264B93F82130DBB2BB71BB7952
:10156800002B37D0FA79234913465B0013445B00FC
:101578000B441A781E4B1A71FA791E4913465B0000
:1015880013445B000B4404331A88194BDA8021E0BA
:10159800174B93F82230DBB2BB71BB79002B1BD001
:1015A800FA79144913465B0013445B000B441A781C
:1015B8000F4B1A72FA790F4913465B0013445B000C
:1015C8000B4404331A880A4B5A8105E000BF04E033
:1015D80000BF02E000BF00E000BFFB790133FB71F0
:1015E800FB79022B8AD900BF00BF0837BD4680BDF2
:1015F800D00700203401002080B582B000AF00235E
:10160800FB710023BB710A4B93F82830DBB2BB7126
:10161800BB79002B08D0064B5B7FDBB2FB71FB79F3
:1016280019460020FFF728FF00BF0837BD4680BDD8
:10163800D007002080B500AF034801F0E1F800F0C2
:1016480005F800BF80BD00BFD872000880B500AFA4
:10165800002001F047FA012001F044FA022001F0CD
:1016680041FA00BF80BD000080B582B000AF002302
:10167800FB710023BB710F4B9B7EDBB2FB71FB79C7
:10168800DB030D4AA2FB03235B099AB20B4B1A80BA
:10169800084B93F82930DBB2BB71BB79002B05D01E
:1016A800064B1B881946002001F0A2F900BF083735
:1016B800BD4680BDD00700201F85EB5146010020A4
:1016C80080B582B000AF0023FB710023BB710F4BC4
:1016D800DB7EDBB2FB71FB79DB030D4AA2FB032344
:1016E8005B099AB20B4B1A80084B93F82A30DBB28D
:1016F800BB71BB79002B05D0064B1B88194601200E
:1017080001F076F900BF0837BD4680BDD00700203C
:101718001F85EB514801002080B582B000AF00233F
:10172800BB7000237B7000237B600023FB701A4B87
:101738001B7FDBB2BB70BB781A464FF4C87302FB41
:1017480003F3164A82FB03121A44D211DB17D31A89
:1017580064337B607B68143B114AA2FB03235B095B
:10176800FB70FB78DB030F4AA2FB03235B099AB2E9
:101778000D4B1A80084B93F82B30DBB27B707B78CB
:10178800002B05D0084B1B881946022001F030F9C0
:1017980000BF0837BD4680BDD0070020B7600BB634
:1017A800CDCCCCCC1F85EB514A01002080B500AFD1
:1017B800FFF75AFFFFF784FFFFF7AEFF00BF80BDBA
:1017C80090B589B000AF78607B68002B00F0758118
:1017D800904A7B6813608F4B8F4A5A608D4B8F4AB3
:1017E8009A600023FB77AAE07B685968FA7F134662
:1017F8005B0013440B44BB61BB691B78184600F0BF
:101808007FFBFA7F1346DB001344DB00844A134452
:101818007B61FA7F13465B0013445B01814A1344E2
:101828003B61BB691B781A467F4B53F822207B69C2
:101838001A607B681B781A467C4B53F822207B6918
:101848005A60BB695B781A46794B53F822207B694A
:101858009A60BB699B781A46764B53F822207B69BD
:10186800DA607B6901221A617B6900221A767B693A
:10187800002283F820207B6900225A61654B596851
:10188800FA7F13469B0013449B000B44BA691A6005
:10189800604B5968FA7F13469B0013449B000B4426
:1018A8007A695A605B4B5968FA7F13469B00134468
:1018B8009B000B443A699A60564B5968FA7F134665
:1018C8009B0013449B000B440022DA60514B59687B
:1018D800FA7F13469B0013449B000B4401221A74A1
:1018E800BB691B78002B0AD14A4B5968FA7F13460B
:1018F8009B0013449B000B444F4A13601CE0BB69D8
:101908001B78012B0AD1434B5968FA7F13469B0079
:1019180013449B000B44484A53600DE0BB691B7895
:10192800022B09D13B4B5968FA7F13469B0013449D
:101938009B000B44404A9360FB7F0133FB777B6835
:101948001B7BFA7F9A42FFF44FAF0023BB778EE0F0
:101958007B689868BB7F19012E4B9C68BA7F134639
:101968005B001344DB00234442181A60294B996832
:10197800BA7F13465B001344DB000B4400221A7144
:10198800244B9968BA7F13465B001344DB000B4471
:1019980000229A60BA7F1F4B9868B97F0B465B009C
:1019A8000B44DB00C11813461B019B1A5B00234A3A
:1019B8001344CB60174B9968BA7F13465B001344F6
:1019C800DB000B4400221A82124B9968BA7F134637
:1019D8005B001344DB00CA18937C23F00103937463
:1019E8000C4B9968BA7F13465B001344DB00CA1896
:1019F800937C23F002039374064B9968BA7F1346CD
:101A08005B001344DB000B4400229A8200237B779F
:101A180027E000BF300400204C0100209401002082
:101A2800DC010020B4020020000000200C0000208F
:101A38001C0000202C00002088010020D403002076
:101A4800204B9968BA7F13465B001344DB000B44B4
:101A5800DA687B7F5B00134400221A807B7F0133A6
:101A68007B777B7F0E2BEBD9BB7F0133BB777B6802
:101A78005B7BBA7F9A42FFF46BAF0023FB60124B8B
:101A88001B6B114A43F4800313630F4B1B6B03F466
:101A98008003FB60FB680021382002F0FBFC012179
:101AA800392002F0F7FC02213B2002F0F3FC00F0A1
:101AB80019FD064B01221A7000E000BF2437BD460D
:101AC80090BD00BF30040020003802403C040020D4
:101AD80080B485B000AF03463960FB713B68002BCA
:101AE80001D1002328E0174B1B685B7BFA799A42E7
:101AF80001D3002320E0134B9968FA7913465B0061
:101B08001344DB000B44FB60FB681B79DBB2002B42
:101B180011D1FB683A689A60FB6800221A82FA6859
:101B2800937C23F001039374FA68937C23F00203F7
:101B38009374012300E0002318461437BD465DF86E
:101B4800047B70473004002080B58EB000AF034698
:101B5800FB71804B1B685B7BFA799A4280F0E980C5
:101B680007F10C0300221A605A609A60DA60794B18
:101B78009968FA7913465B001344DB000B443B6316
:101B88003B6B002B00F0D7803B6B1B68FB62FB6A4A
:101B9800002B00F0D2806F4B5A68FB6A1B781946FD
:101BA8000B469B000B449B001344BB62BB6A002B93
:101BB80000F0C580BB6A5B687B627B6A002B00F023
:101BC800C080BB6A1B7C002B00F0BD80FB6A5B7A7F
:101BD800012B0CBF01230023DBB287F82330FB6AFB
:101BE8009B7A002B0CBF01230023DBB287F822303D
:101BF800FB6A1B7A012B8CBF01230023DBB21A4638
:101C08007B6A1A6197F82330002B14BF0123002345
:101C1800DBB21A467B6A1A7697F82330002B14BF7A
:101C280001230023DBB21A467B6A83F8302097F839
:101C38002230002B01D0484A00E000227B6A9A62D9
:101C4800FB6A1B7A1A467B6ADA617B6A00225A6150
:101C5800786A02F07FFD002387F837302BE0FB6AB3
:101C6800596897F8372013465B0013440B441B78D8
:101C7800FB60FB6A596897F8372013465B001344EA
:101C88000B449B783B61FB6A596897F837201346E9
:101C98005B0013440B445B787B6107F10C03194626
:101CA800786A02F027FF0346002B4ED197F83730A9
:101CB800013387F83730FB6A1B7A97F837209A4246
:101CC800CDD3FB79184600F061F9FB6ADB7A002B6B
:101CD80005D1FB6A5B7A012B01D1012300E00023C7
:101CE80087F82130FB6ADB7A012B07D1FB6A1B7A64
:101CF8001A46FB6A9B8902FB03F309E097F8213037
:101D0800002B03D0FB6A1B7A5B0001E0FB6A1B7A9D
:101D1800FB613A6B937C43F001039374BB6A3A6BA3
:101D2800DA603B6B9B68FA691946786A02F056FDDF
:101D38000CE000BF0AE000BF08E000BF06E000BFFB
:101D480004E000BF02E000BF00E000BF3837BD4636
:101D580080BD00BF300400200100000F80B588B0AE
:101D680000AF03463960FB713B68002B01D10023AB
:101D78009CE0504B1B685B7BFA799A4201D900239F
:101D880094E04C4B9968FA7913465B001344DB00E6
:101D98000B44BB61BB691B687B61BB699B68002BFB
:101DA80001D1002382E07B69002B01D100237DE073
:101DB80000F0A5FBBB691B79FB74BB691B8A3B82DE
:101DC800BB699B7CC3F34003DBB2FB7300F08AFB67
:101DD8007B69DB7A002B03D17B695B7A012B07D007
:101DE8007B69DB7A012B05D17B699B7B012B01D1B8
:101DF800012300E00023BB737B69DB7A002B03D14E
:101E08007B695B7A002B07D07B69DB7A012B05D1D4
:101E18007B699B7B002B01D1012300E000237B73AE
:101E2800FB7C002B08D1BB699B7C03F00103DBB270
:101E3800002B01D1002339E0FB7B002B01D10023CB
:101E480034E00023FB830DE0BB69DA68FB8B5B00A1
:101E58001A44FB8B5B0039680B4412881A80FB8B91
:101E68000133FB837B691B7A1A46FB8B9342EBD3C6
:101E780000237B77FB7C032B0BD1BB7B002B02D091
:101E880001237B770AE07B7B002B07D000237B773D
:101E980004E0FB7C022B01D101237B7700F02FFBB0
:101EA800BB697A7F1A7100F01DFB012318462037A1
:101EB800BD4680BD3004002080B584B000AF034625
:101EC800FB710E4B1B685B7BFA799A4201D3FF23A7
:101ED80010E00A4B9968FA7913465B001344DB005B
:101EE8000B44FB6000F00BFBFB681B79FB7200F0F6
:101EF800F9FAFB7A18461037BD4680BD3004002039
:101F080080B487B000AF0346FB71FB79022B24D065
:101F1800022B31DC002B02D0012B0FD02CE0002348
:101F28007B61194B5B6C184A43F480735364164BFE
:101F38005B6C03F480737B617B691EE000233B616B
:101F4800114B5B6C104A43F4007353640E4B5B6C8B
:101F580003F400733B613B690FE00023FB600A4B0D
:101F68005B6C094A43F480635364074B5B6C03F46E
:101F78008063FB60FB6800E000BF00BF1C37BD4604
:101F88005DF8047B704700BF0038024080B588B018
:101F980000AF0346FB71444B1B689A68FB791B0131
:101FA8001344FB61404B5A68FB691B7819460B4682
:101FB8009B000B449B001344BB61BB699B687B611E
:101FC800BB695B683B61FB695B7A012B0CBF012332
:101FD8000023DBB2FB73FB69DB7A002B05D1FB69BD
:101FE8005B7A002B01D1012300E00023BB737B69DE
:101FF8001B681A687B691B6822F001021A60FB697A
:102008001B781A46294B53F822207B691A60FB6912
:102018001B781A46264B53F822207B695A607B6945
:1020280000229A607B690022DA607B694FF4806243
:102038001A617B694FF400625A617B694FF4005260
:102048009A61FB7B002B02D04FF4807200E00022E3
:102058007B69DA617B6900221A627B6900225A6215
:10206800786903F0DDF80346002B19D1BB7B002B00
:1020780007D17B691B681A687B691B6842F00802F4
:102088001A607B691B681A687B691B6842F010023A
:102098001A603B697A699A637B693A699A6300E0D6
:1020A80000BF2037BD4680BD30040020340000202A
:1020B8004000002080B500AF002000F011F800BFFC
:1020C80080BD80B500AF022000F00AF800BF80BDD7
:1020D80080B500AF012000F003F800BF80BD00000C
:1020E80080B588B000AF0346FB71FB797C4A52F893
:1020F8002330FB61FB69002B00F0E980FB69DB689A
:10210800BB61BB69002B00F0E480FB699B687B61C5
:102118007B69002B00F0DF80FB79002B08D0FB796E
:10212800012B02D14FF0806303E04FF4806300E09D
:1021380010233B617B691B681A466A4B9A4209D98E
:10214800694B5A683B691340002B14BF01230023D5
:10215800DBB228E07B691B681A46644B9A4209D9AE
:10216800614B1A683B691340002B14BF01230023FD
:10217800DBB218E07B691B681A465D4B9A4209D9A5
:102188005C4B5A683B691340002B14BF01230023A2
:10219800DBB208E0574B1A683B691340002B14BFA9
:1021A80001230023DBB2002B23D07B691B681A466E
:1021B8004C4B9A4203D94C4A3B69D36016E07B6981
:1021C8001B681A46494B9A4203D9474A3B699360B0
:1021D8000CE07B691B681A46454B9A4203D9454A6D
:1021E8003B69D36002E0434A3B699360B86900F0F9
:1021F80083F8FB79002B08D0FB79012B02D14FF033
:10220800006303E04FF4006300E02023FB607B6978
:102218001B681A46334B9A4209D9334B5A68FB68F4
:102228001340002B14BF01230023DBB228E07B6995
:102238001B681A462D4B9A4209D92B4B1A68FB6822
:102248001340002B14BF01230023DBB218E07B6985
:102258001B681A46264B9A4209D9264B5A68FB68CE
:102268001340002B14BF01230023DBB208E0214BED
:102278001A68FB681340002B14BF01230023DBB24C
:10228800002B29D07B691B681A46164B9A4203D942
:10229800154AFB68D36016E07B691B681A46134B26
:1022A8009A4203D9104AFB6893600CE07B691B686B
:1022B8001A460F4B9A4203D90E4AFB68D36002E0D4
:1022C8000C4AFB689360B86900F082F804E000BF2C
:1022D80002E000BF00E000BF2037BD4680BD00BF60
:1022E800880100205864024000640240B86002403F
:1022F800586002400060024080B487B000AF786048
:102308007B681B687B617B69002B5AD07B69DB7A11
:10231800002B07D07B69DB7A002B05D17B695B7AC0
:10232800012B01D1012300E00023FB747B691B7A98
:10233800BB74FB7C002B02D17B699B8900E00223E4
:102348003B82BB7C9BB23A8A12FB03F3FB817A681F
:10235800937C43F002039374FB8903F001039BB25F
:10236800002B07D1FB895B089AB2BB7C9BB2D31ABE
:102378009BB20AE0FB895B089BB21A46BB7C92FBC6
:10238800F3F101FB03F3D31A9BB27A6813827B68DB
:1023980002221A71FB8903F001039BB2002B05D1BD
:1023A800FB895B089BB2013B9BB207E0FB89013BC1
:1023B800DA0F13445B109BB2013B9BB27A6893829D
:1023C80000E000BF1C37BD465DF8047B7047000085
:1023D80080B588B000AF78607B681B68BB61BB695B
:1023E800002B75D03E4B5A68BB691B7819460B46C3
:1023F8009B000B449B0013447B617B69002B69D0D5
:102408007B695B683B613B69002B65D0BB691B7AC4
:10241800FB73BB69DB7A002B07D0BB69DB7A002B27
:1024280005D1BB695B7A012B01D1012300E00023B0
:10243800BB73BB7B002B02D1BB699B8900E00223E5
:10244800BB81BB699B7B002B07D0BB69DB7A012B67
:1024580005D1BB699B7B002B01D1012300E0002340
:10246800FB72FB7B9BB2BA8912FB03F33B81FB7BBC
:102478009BB23A89D31A9AB27B681A82FB7A012BEB
:1024880002D1386902F0BEFA0023FB770EE07B68C0
:102498009A68FB7F5B001A447B68D968FB7F5B0006
:1024A8000B4412881A80FB7F0133FB77FA7FFB7B92
:1024B8009A42ECD3FB7A002B01D0032200E00222DF
:1024C8007B681A71BB89013B9AB27B689A8204E0E7
:1024D80000BF02E000BF00E000BF2037BD4680BD5E
:1024E8003004002080B500AF382001F095FF392076
:1024F80001F092FF3B2001F08FFF00BF80BD80B547
:1025080000AF382001F0A6FF392001F0A3FF3B20DF
:1025180001F0A0FF00BF80BD80B483B000AF786039
:102528007B68002B02D0044A7B68136000BF0C371D
:10253800BD465DF8047B70475400002080B584B028
:1025480000AF0346FB71104B1B681B7AFA799A425D
:1025580001D3002314E00C4B1B681A68FB79DB00DD
:102568001344FB60FB681A68FB689B881946104691
:1025780003F040FA0346012B0CBF01230023DBB212
:1025880018461037BD4680BD5400002080B584B081
:1025980000AF03460A46FB711346BB710F4B1B681D
:1025A8001B7AFA799A4214D20C4B1B685A68FB7949
:1025B800DB001344FB60FB681868FB689988BB79EB
:1025C800012B0CBF01230023DBB21A4603F02AFAC1
:1025D80000E000BF1037BD4680BD00BF540000209A
:1025E80080B48BB000AF78607B684E4A93420ED1BE
:1025F80000237B624C4B1B6B4B4A43F00103136374
:10260800494B1B6B03F001037B627B6A83E07B68A9
:10261800464A93420ED100233B62434B1B6B424A0E
:1026280043F002031363404B1B6B03F002033B624E
:102638003B6A70E07B683E4A93420ED10023FB61FF
:10264800394B1B6B384A43F004031363364B1B6B3F
:1026580003F00403FB61FB695DE07B68354A934244
:102668000ED10023BB61304B1B6B2F4A43F008038C
:1026780013632D4B1B6B03F00803BB61BB694AE076
:102688007B682D4A93420ED100237B61264B1B6B3E
:10269800254A43F010031363234B1B6B03F010030D
:1026A8007B617B6937E07B68244A93420ED1002323
:1026B8003B611D4B1B6B1C4A43F0200313631A4BF1
:1026C8001B6B03F020033B613B6924E07B681C4AD9
:1026D80093420ED10023FB60134B1B6B124A43F04D
:1026E80040031363104B1B6B03F04003FB60FB6854
:1026F80011E07B68134A93420DD10023BB600A4B5B
:102708001B6B094A43F080031363074B1B6B03F0F1
:102718008003BB60BB6800BF2C37BD465DF8047BF7
:10272800704700BF00000240003802400004024029
:1027380000080240000C0240001002400014024051
:1027480000180240001C024080B58CB000AF7860D1
:102758007B68002B50D0002387F82F3045E07B683A
:102768001A6897F82F301B0113443B620023BB62A1
:1027780000237B623B6A1B681846FFF731FF3B6A00
:102788009B79002B02D0012B09D00BE03B6ADB7947
:10279800012B01D1012300E00023BB620BE00323DE
:1027A800BB6208E00223BB623B6A9B79023B03F0F1
:1027B8000F037B6200BF3B6A9B88FB60BB6A3B617F
:1027C8003B6A9B687B613B6ADB68BB617B6AFB6138
:1027D8003B6A1B6807F10C021146184602F076FFA7
:1027E80097F82F30013387F82F307B681B7997F8DB
:1027F8002F209A42B3D300E000BF3037BD4680BDDA
:1028080080B590B000AF78607B68002B00F0DF8067
:10281800002387F83F303FE07B68196897F83F202E
:1028280013465B0013445B000B443B633B6B1B7814
:102838001A466B4B53F82230FB623B6B1B781A46E7
:102848001346DB001344DB00664A1344BB623B6B50
:102858001B78184600F01CFABB6AFA6A1A603B6BD0
:102868005B881A46BB6A5A603B6B9B88013B1A46D9
:10287800BB6ADA60BB6A00229A60BB6A80229A61EE
:10288800B86A03F09DFE0346002B40F0A28097F83B
:102898003F30013387F83F307B681B7997F83F203A
:1028A8009A42B9D3002387F83E3085E07B6899685F
:1028B80097F83E2013469B0013445B000B44BB6310
:1028C80007F10C0300221A605A609A60DA601A61F4
:1028D8005A619A61BB6B1B781A461346DB00134496
:1028E800DB00404A13447B63BB6BDB79002B01D0D0
:1028F800702300E06023FB60BB6B1B79002B01D0C9
:10290800022300E000237B617B6BDB680133BA6B39
:10291800528802FB03F3DB0B3B61BB6B5B781A4607
:1029280007F10C031946786B03F062FF0346002B8E
:1029380051D1BB6B5B78002B08D17B6B1B689A6904
:102948007B6B1B6822F008029A6121E0BB6B5B7805
:10295800042B08D17B6B1B689B697A6B126823F484
:102968000063936114E0BB6B5B78082B08D17B6B29
:102978001B68DB697A6B126823F00803D36107E0F0
:102988007B6B1B68DB697A6B126823F40063D36185
:1029980097F83E20144913469B0013445B000B44F0
:1029A800BA6B106851681860596012891A8197F8D3
:1029B8003E30013387F83E307B681B7B97F83E201A
:1029C8009A42FFF473AF094B01221A7004E000BF6A
:1029D80002E000BF00E000BF4037BD4680BD00BF39
:1029E8005800002040040020A0070020BE07002057
:1029F80080B487B000AF03460A46FB711346BB801C
:102A0800354B1B78002B5BD0FB79022B5AD8BB883F
:102A1800B3F5004F58D8FA7913469B0013445B006E
:102A28002E4A13447B617B691B781A461346DB00E8
:102A38001344DB002A4A13443B613B691B68002BA3
:102A480044D03B691B68DB6A9BB20133FB81FB897D
:102A5800BA8802FB03F3DB0BBB607B695B78002B56
:102A680005D1BB689AB23B691B685A631BE07B6956
:102A78005B78042B06D1BB6899B23B691A680B4690
:102A8800936310E07B695B78082B06D1BB6899B229
:102A98003B691A680B46D36305E0BB6899B23B698A
:102AA8001A680B461364FA79BB6898B20B49134647
:102AB8009B0013445B000B44023302461A8006E075
:102AC80000BF04E000BF02E000BF00E000BF1C3709
:102AD800BD465DF8047B7047BE070020A0070020B4
:102AE8004004002080B586B000AF0346FB71654BFB
:102AF8001B78002B00F0BD80FB79022B00F2BB8015
:102B0800FA7913469B0013445B005F4A13447B61C8
:102B18007B691B781A461346DB001344DB005B4ACB
:102B280013443B613B691B68002B00F0A6803B699E
:102B38001B68DB6A9BB20133FB817B691B79002B25
:102B480047D17B695B79002B1FD17B695B78002BB0
:102B580004D13B691B68FA895A6381E07B695B7819
:102B6800042B04D13B691A68FB89936378E07B697D
:102B78005B78082B04D13B691A68FB89D3636FE043
:102B88003B691A68FB8913646AE07B695B79012BEE
:102B980066D17B695B78002B04D13B691B680022F6
:102BA8005A635DE07B695B78042B04D13B691A6842
:102BB8000023936354E07B695B78082B04D13B695D
:102BC8001A680023D3634BE03B691A680023136437
:102BD80046E07B695B79002B1FD17B695B78002B12
:102BE80004D13B691B6800225A6339E07B695B7832
:102BF800042B04D13B691A680023936330E07B6996
:102C08005B78082B04D13B691A680023D36327E05B
:102C18003B691A680023136422E07B695B79012B06
:102C28001ED17B695B78002B04D13B691B68FA894C
:102C38005A6315E07B695B78042B04D13B691A68F9
:102C4800FB8993630CE07B695B78082B04D13B69B3
:102C58001A68FB89D36303E03B691A68FB8913642C
:102C68007B695B781946386903F0FAFC0346002B48
:102C780004E000BF02E000BF00E000BF1837BD4617
:102C880080BD00BFBE070020A00700204004002030
:102C980080B48FB000AF0346FB71FB790B2B00F2B9
:102CA800CF8001A252F823F0E12C0008FF2C000885
:102CB8001D2D00083B2D0008592D0008772D000810
:102CC800952D0008B32D0008D12D0008EF2D000820
:102CD8000D2E00082B2E000800237B635C4B5B6CD9
:102CE8005B4A43F001035364594B5B6C03F00103E7
:102CF8007B637B6BA5E000233B63554B1B6C544AFD
:102D080043F001031364524B1B6C03F001033B6354
:102D18003B6B96E00023FB624D4B1B6C4C4A43F027
:102D2800020313644A4B1B6C03F00203FB62FB6A49
:102D380087E00023BB62464B1B6C454A43F0040303
:102D48001364434B1B6C03F00403BB62BB6A78E05B
:102D580000237B623E4B1B6C3D4A43F0080313641F
:102D68003B4B1B6C03F008037B627B6A69E0002322
:102D78003B62374B5B6C364A43F002035364344B77
:102D88005B6C03F002033B623B6A5AE00023FB6181
:102D98002F4B5B6C2E4A43F4803353642C4B5B6C93
:102DA80003F48033FB61FB694BE00023BB61284BD4
:102DB8005B6C274A43F400335364254B5B6C03F484
:102DC8000033BB61BB693CE000237B61204B5B6C3B
:102DD8001F4A43F4802353641D4B5B6C03F4802328
:102DE8007B617B692DE000233B61194B1B6C184A02
:102DF80043F040031364164B1B6C03F040033B6124
:102E08003B691EE00023FB60114B1B6C104A43F02A
:102E1800800313640E4B1B6C03F08003FB60FB689C
:102E28000FE00023BB600A4B1B6C094A43F4807314
:102E38001364074B1B6C03F48073BB60BB6800E032
:102E480000BF00BF3C37BD465DF8047B704700BF3C
:102E58000038024080B485B000AF0346FB800223EF
:102E6800FB730223BB731B4B9B7FDBB2BB73BB7B28
:102E7800013B032B25D801A252F823F0952E000818
:102E8800A12E0008AF2E0008BD2E0008FB88124AAC
:102E980012F82330FB7315E0FB880F4A9B0013449C
:102EA8005B78FB730EE0FB880B4A9B0013449B780E
:102EB800FB7307E0FB88084A9B001344DB78FB732D
:102EC80000E000BFFB7B18461437BD465DF8047B65
:102ED800704700BFD0070020F872000880B485B0A2
:102EE80000AF0346FB800223FB730223BB731B4B1B
:102EF800DB7FDBB2BB73BB7B013B032B25D801A275
:102F080052F823F01D2F0008292F0008372F00083A
:102F1800452F0008FB88124A12F82330FB7315E08E
:102F2800FB880F4A9B0013445B78FB730EE0FB8819
:102F38000B4A9B0013449B78FB7307E0FB88084A05
:102F48009B001344DB78FB7300E000BFFB7B184653
:102F58001437BD465DF8047B704700BFD0070020DA
:102F6800E872000880B582B000AF0020FFF772FF5A
:102F78000346FB71FB79022B04D1064B012283F82F
:102F8800202003E0034B002283F8202000BF0837ED
:102F9800BD4680BDD007002080B582B000AF0120BB
:102FA800FFF758FF0346FB71FB79022B04D1064B50
:102FB800012283F8212003E0034B002283F821201B
:102FC80000BF0837BD4680BDD007002080B582B05D
:102FD80000AF0220FFF73EFF0346FB71FB79022B8F
:102FE80004D1064B012283F8222003E0034B002280
:102FF80083F8222000BF0837BD4680BDD0070020D7
:1030080080B582B000AF0320FFF724FF0346FB71B1
:10301800FB79022B04D1064B012283F8232003E01D
:10302800034B002283F8232000BF0837BD4680BD2C
:10303800D007002080B582B000AF0420FFF70AFF58
:103048000346FB71FB79022B04D1064B012283F85E
:10305800242003E0034B002283F8242000BF083714
:10306800BD4680BDD007002080B582B000AF0520E6
:10307800FFF7F0FE0346FB71FB79022B04D1064BE8
:10308800012283F8252003E0034B002283F8252042
:1030980000BF0837BD4680BDD007002080B582B08C
:1030A80000AF0620FFF7D6FE0346FB710720FFF7A7
:1030B800D1FE0346BB71FB79022B04D10C4B0122D4
:1030C80083F8262003E00A4B002283F82620BB79E8
:1030D800022B04D1064B012283F8272003E0044B7E
:1030E800002283F8272000BF0837BD4680BD00BFF7
:1030F800D007002080B582B000AF0020FFF7EEFEB9
:103108000346FB71FB79022B04D1064B012283F89D
:10311800282003E0034B002283F8282000BF08374B
:10312800BD4680BDD007002080B582B000AF012029
:10313800FFF7D4FE0346FB71FB79022B04D1064B43
:10314800012283F8292003E0034B002283F8292079
:1031580000BF0837BD4680BDD007002080B582B0CB
:1031680000AF0220FFF7BAFE0346FB71FB79022B82
:1031780004D1064B012283F82A2003E0034B0022E6
:1031880083F82A2000BF0837BD4680BDD00700203D
:1031980080B582B000AF0320FFF7A0FE0346FB71A5
:1031A800FB79022B04D1064B012283F82B2003E084
:1031B800034B002283F82B2000BF0837BD4680BD93
:1031C800D007002080B500AFFFF7CCFEFFF7E4FE84
:1031D800FFF7FCFEFFF714FFFFF72CFFFFF744FF94
:1031E800FFF75CFF00BF80BD80B500AFFFF79CFF15
:1031F800FFF7B4FFFFF7CCFFFFF77CFF00BF80BDF0
:1032080080B500AFFFF7DEFF00BF80BD80B500AF1F
:10321800FFF7EAFF00BF80BD80B400AF054B022274
:103228009A77044B0222DA7700BFBD465DF8047B2B
:10323800704700BFD007002080B485B000AF0346B8
:103248000A46FB8013467B7140F20223BB81FB8850
:10325800B3F5AF5FC0F09280FB88B3F5FA5F00F278
:103268008D807B79914AD35C132B17D97B79904A4F
:10327800D35C022B12D17B7910333B44012203F833
:10328800042C7B798B4A0021D1547B798A4A00210E
:10329800D1547B79894A0021D15446E07B79834A0D
:1032A800D35C272B17D97B79814AD35C032B12D1A6
:1032B8007B7910333B44012203F8042C7B797D4A47
:1032C8000021D1547B797C4A0021D1547B797B4AF7
:1032D8000021D15429E07B79744AD35C4F2B17D94C
:1032E8007B79734AD35C042B12D17B7910333B442E
:1032F800012203F8042C7B796E4A0021D1547B7992
:103308006D4A0021D1547B796C4A0021D1540CE0DC
:103318007B79674AD35C012B07D07B79634AD25CFF
:103328007B790132D1B2614AD1547B79614AD35C4D
:10333800002B07D07B795F4AD25C7B79013AD1B206
:103348005C4AD1547B795C4AD35C002B07D07B79EB
:10335800594AD25C7B79013AD1B2574AD1547B7928
:10336800564AD35C002B00F0DF817B79534AD25C4C
:103378007B79013AD1B2514AD154D5E1FB88B3F5F2
:10338800FA5FC0F09D80FB88B3F57A5F00F2988001
:103398007B79484AD35C132B17D97B79444AD35C91
:1033A800012B12D17B7910333B44022203F8042C01
:1033B8007B793E4A0021D1547B793F4A0021D15480
:1033C8007B793E4A0021D15446E07B79394AD35C67
:1033D800272B17D97B79364AD35C032B12D17B79FB
:1033E80010333B44022203F8042C7B792F4A002136
:1033F800D1547B79304A0021D1547B792F4A00215E
:10340800D15429E07B792B4AD35C4F2B17D97B7990
:10341800274AD35C042B12D17B7910333B44022218
:1034280003F8042C7B79214A0021D1547B79224A64
:103438000021D1547B79214A0021D1540CE07B79B9
:103448001B4AD35C022B07D07B791A4AD25C7B7962
:103458000132D1B2174AD1547B79144AD35C002B7C
:1034680007D07B79114AD25C7B79013AD1B20F4AF5
:10347800D1547B79104AD35C002B07D07B790E4A54
:10348800D25C7B79013AD1B20B4AD1547B790B4A91
:10349800D35C002B00F048817B79084AD25C7B79A9
:1034A800013AD1B2054AD1543EE100BFC00700201D
:1034B80088000020C4070020C8070020CC0700208F
:1034C800FB88B3F57A5FC0F09380FB8844F6382216
:1034D800934200F28D807B79744AD35C132B17D901
:1034E8007B79734AD35C012B12D17B7910333B442F
:1034F800032203F8042C7B796E4A0021D1547B798E
:103508006D4A0021D1547B796C4A0021D15446E0A0
:103518007B79664AD35C272B17D97B79644AD35CBD
:10352800022B12D17B7910333B44032203F8042C7D
:103538007B79604A0021D1547B795F4A0021D154BC
:103548007B795E4A0021D15429E07B79574AD35CC4
:103558004F2B17D97B79564AD35C042B12D17B7930
:1035680010333B44032203F8042C7B79514A002191
:10357800D1547B79504A0021D1547B794F4A00219C
:10358800D1540CE07B794A4AD35C032B07D07B7972
:10359800464AD25C7B790132D1B2444AD1547B7914
:1035A800444AD35C002B07D07B79424AD25C7B79B2
:1035B800013AD1B23F4AD1547B793F4AD35C002BC0
:1035C80007D07B793C4AD25C7B79013AD1B23A4A3E
:1035D800D1547B79394AD35C002B00F0A5807B79E4
:1035E800364AD25C7B79013AD1B2344AD1549BE055
:1035F800FB8844F63722934240F296807B792F4A23
:10360800D35C132B17D97B79294AD35C012B12D1B0
:103618007B7910333B44042203F8042C7B79254A38
:103628000021D1547B79244A0021D1547B791F4A47
:103638000021D15451E07B79204AD35C272B17D93C
:103648007B791B4AD35C022B12D17B7910333B4424
:10365800042203F8042C7B79164A0021D1547B7983
:10366800154A0021D1547B79104A0021D15434E005
:103678007B79124AD35C4F2B22D97B790C4AD35CD5
:10368800032B1DD17B7910333B44042203F8042C0F
:103698007B79084A0021D1547B79074A0021D1540B
:1036A8007B79024A0021D15417E000BFC8070020E7
:1036B80088000020C0070020C4070020CC07002095
:1036C8007B79574AD35C042B07D07B79554AD25C67
:1036D8007B790132D1B2534AD1547B79524AD35CB7
:1036E800002B07D07B79504AD25C7B79013AD1B262
:1036F8004D4AD1547B794D4AD35C002B07D07B7956
:103708004A4AD25C7B79013AD1B2484AD1547B7992
:10371800474AD35C002B07D07B79454AD25C7B793A
:10372800013AD1B2424AD1547B7910333B4413F861
:10373800042C7B793A49CB5C9A422BD97B7910339C
:103748003B4413F8043C19467B79354AD35CCB1AC1
:10375800012B09DD7B7910333B4413F8042C7B796A
:10376800013AD1B22E4AD154FA887B7910333B44BE
:1037780013F8043C013B2F4931F81330C8339A42FF
:103788003BD27A797B7926498A5C10333B4403F82B
:10379800042C32E07B7910333B4413F8042C7B79FA
:1037A8001F49CB5C9A4228D27B791D4AD35C1A46C2
:1037B8007B7910333B4413F8043CD31A012B09DD01
:1037C8007B7910333B4413F8042C7B790132D1B256
:1037D800134AD154FA887B791149CB5C013B1549CE
:1037E80031F81330C83B9A4207D97A797B790C496A
:1037F8008A5C10333B4403F8042C7A797B791032C5
:103808003A4412F8041C064AD1547B7910333B44DD
:1038180013F8043C18461437BD465DF8047B70471E
:1038280088000020CC070020C0070020C407002023
:10383800C80700201873000880B582B000AF094B94
:10384800DB8A9BB2BB80BB8800211846FFF7F4FCDB
:103858000346FB71034AFB79937700BF0837BD46DF
:1038680080BD00BFD007002080B582B000AF094BF3
:10387800DB8A9BB2BB80BB8800211846FFF7DCFCC3
:103888000346FB71034AFB79937700BF0837BD46AF
:1038980080BD00BFD007002080B500AFFFF7BCFC9B
:1038A80000BF80BD80B500AFFFF7C6FFFFF7DCFFA4
:1038B80000BF80BD80B586B000AF1F4B5B889BB250
:1038C8001846FCF7DFFD02460B46C7E902231A4BF0
:1038D800DB889BB21846FCF7D5FD02460B46C7E9C4
:1038E8000023D7E902014FF00002144BFDF7CAF894
:1038F8000346002B02D05A237B6101E000237B6141
:10390800D7E900014FF000020C4BFDF7BBF8034666
:10391800002B02D03C233B6101E000233B617B6923
:10392800DAB2054B9A763B69DAB2034BDA7600BF16
:103938001837BD4680BD00BFD00700200000F03F0B
:1039480090B59FB000AF6A4BDB899BB21846FCF775
:1039580099FD02460B46C7E90423654B1B8A9BB2B7
:103968001846FCF78FFD02460B46C7E90223604B59
:103978005B8A9BB21846FCF785FD02460B46C7E9F1
:103988000023D7E904014FF000025A4BFCF7F4FD7D
:1039980002460B46C7E91A23D7E902014FF0000295
:1039A800544BFCF7E9FD02460B46C7E91823D7E953
:1039B80000014FF000024F4BFCF7DEFD02460B46BC
:1039C800C7E9162348A3D3E90023D7E91A01FCF76E
:1039D800FDFE02460B46C7E9142343A3D3E900239F
:1039E800D7E91801FCF7F2FE02460B46C7E9122395
:1039F8003DA3D3E90023D7E91601FCF7E7FE024609
:103A08000B46C7E910234FF000023B4BD7E91401DE
:103A1800FCF7B2FD02460B46C7E90E234FF0000241
:103A2800354BD7E91201FCF7A7FD02460B46C7E95B
:103A38000C234FF00002304BD7E91001FCF79CFD36
:103A480002460B46C7E90A2301231C464FF0000231
:103A58002A4BD7E90E01FDF715F80346002B01D1D3
:103A680000231C46E3B27B6201231C464FF0000290
:103A7800234BD7E90C01FCF7FBFF0346002B01D1D0
:103A880000231C46E3B23B6201231C464FF00002B0
:103A98001C4BD7E90A01FCF7EBFF0346002B01D1C9
:103AA80000231C46E3B2FB617B6A002B05D13B6A0D
:103AB800002B02D1FB69002B01D0012300E0002379
:103AC800BB61BB69002B02DD00237B6701E001239A
:103AD8007B677B6FDAB2064B83F82C2000BF7C37FC
:103AE800BD4690BDAFF300800000000000FEAF406F
:103AF800D0070020000014400000594000805B40BF
:103B080000005C400000184080B483B000AF7860CB
:103B180039607B681B68022B1ED0022B2ADC002B25
:103B280002D0012B08D025E03B68B3F5AF6F1CDD50
:103B38007B6801221A6018E03B68B3F5966F03DAD8
:103B48007B6800221A6012E03B68B3F52F6F0EDD28
:103B58007B6802221A600AE03B6840F627229342FB
:103B680007DC7B6801221A6003E000BF02E000BFA7
:103B780000E000BF00BF0C37BD465DF8047B70470E
:103B880080B5BCB000AF7861396187ED020B87ED75
:103B9800001B4FF000024FF00003C7E90623A14BBA
:103BA800D3E90023C7E932239F4BD3E90023C7E9B0
:103BB80030234FF000029D4BC7E92E234FF000023F
:103BC8004FF00003C7E92C234FF00002974BC7E9D9
:103BD8002A23974B93F82C30DBB21846FCF752FC9B
:103BE80002460B46C7E906234FF000024FF0804318
:103BF800C7E928234FF000024FF00003C7E9262346
:103C08004FF000024FF00003C7E924234FF00002F1
:103C1800864BC7E922234FF000024FF00003C7E9A3
:103C280020234FF000024FF00003C7E91E23D7E915
:103C38003223D7E92E01FCF707FF0346002B03D0F8
:103C48004FF00002794B03E04FF000024FF0000301
:103C5800C7E91C23D7E92C23D7E90201FCF7F4FEB6
:103C68000346002B03D04FF00002704B03E04FF0E7
:103C780000024FF00003C7E91A23D7E90023D7E968
:103C88002801FCF7F5FE0346002B03D04FF0000295
:103C9800664B03E04FF000024FF00003C7E918231A
:103CA800D7E92423D7E90201FCF7CEFE0346002B0F
:103CB80003D04FF000025D4B03E04FF000024FF0DD
:103CC8000003C7E916237969D7E90223C1E900236C
:103CD8004FF000024FF00003D7E91C01FCF7B4FED7
:103CE8000346002B0CD14FF000024FF00003D7E938
:103CF8001A01FCF7A9FE0346002B01D1012300E0BD
:103D080000231846FCF7CEFB02460B46C7E91423EE
:103D1800D7E906014FF000024FF00003FCF794FECC
:103D28000346002B0CD14FF000024FF00003D7E9F7
:103D38001801FCF789FE0346002B01D1012300E09E
:103D480000231846FCF7AEFB02460B46C7E91223D0
:103D58004FF00002354BD7E91201FCF793FE0346FA
:103D6800002B04D0D7E92A23C7E93A2303E0D7E98F
:103D78000023C7E93A234FF000024FF00003D7E9C8
:103D88001401FCF761FE0346002B03D04FF000023C
:103D9800264B03E04FF000024FF00003C7E9102361
:103DA8004FF000024FF00003D7E91401FCF74CFE76
:103DB8000346002B0AD04FF000024FF00003D7E96A
:103DC8003001FCF741FE0346002B01D1012300E03E
:103DD80000231846FCF766FB02460B46C7E90E238C
:103DE800D7E92623D7E93A01FCF756FE0346002B0C
:103DF80003D04FF000020D4B03E04FF000024FF0EC
:103E08000003C7E90C234FF00002084BD7E90E0165
:103E1800FCF738FE0346002B0CD0D7E92223C7E96C
:103E280036230BE000080020080800200000F03FBF
:103E3800D0070020D7E92023C7E936234FF0000236
:103E48004FF00003D7E91001FCF7FEFD0346002BF5
:103E580017D14FF000024FF00003D7E91601FCF725
:103E6800F3FD0346002B0CD14FF000024FF0000386
:103E7800D7E90C01FCF7E8FD0346002B01D101232B
:103E880000E000231846FCF70DFB02460B46C7E985
:103E98000A23D7E93623D7E93001FCF7B7F90246F8
:103EA8000B46C7E908234FF00002244BD7E9080165
:103EB800FCF7F2FD0346002B04D0D7E91E23C7E91F
:103EC800382303E0D7E90823C7E938234FF0000275
:103ED8001B4BD7E90A01FCF7D5FD0346002B04D09C
:103EE800D7E93A23C7E9342314E04FF000024FF032
:103EF8000003D7E93801FCF7A7FD0346002B03D1DF
:103F08004FF000020E4B03E04FF000024FF00003A9
:103F1800C7E934233969D7E93423C1E900230949BA
:103F2800D7E93823C1E900230749D7E90223C1E9C2
:103F3800002300BFF037BD4680BD00BF0000184019
:103F48000000F03F080800200008002090B5ADB040
:103F580000AF786187ED020B87ED001B9C4BD3E91E
:103F68000023C7E91E239B4BD3E90023C7E91C2381
:103F7800994BD3E90023C7E91A234FF000024FF009
:103F88000003C7E918234FF000024FF00003C7E908
:103F980016234FF00002914BC7E914234FF000029B
:103FA8004FF00003C7E9122301231C464FF000021B
:103FB8008A4BD7E91E01FCF765FD0346002B01D1AA
:103FC80000231C46E3B27B64D7E91823D7E9020132
:103FD800FCF73AFD0346002B03D04FF000027F4B5D
:103FE80003E04FF000024FF00003C7E90E234FF043
:103FF80000024FF00003D7E90201FCF725FD034654
:10400800002B0AD04FF000024FF00003D7E91C0143
:10401800FCF71AFD0346002B01D1012300E0002321
:104028007B634FF000024FF00003D7E90201FCF771
:1040380033FD0346002B04D0D7E90223C7E9202328
:1040480003E0D7E91C23C7E920237B6C002B0CD0A5
:104058004FF000024FF00003D7E90E01FCF7F4FC23
:104068000346002B01D1012300E000231846FCF78A
:1040780019FA02460B46C7E90A234FF000024FF02F
:104088000003D7E90001FCF7DFFC0346002B0CD145
:104098004FF000024FF00003D7E90E01FCF7D4FC03
:1040A8000346002B01D1012300E000231846FCF74A
:1040B800F9F902460B46C7E908237B6B002B04DDA0
:1040C800D7E92023C7E9222303E0D7E91223C7E968
:1040D80022234FF000024FF00003D7E90A01FCF752
:1040E800B3FC0346002B0AD04FF000024FF0000348
:1040F800D7E91A01FCF7A8FC0346002B01D10123DC
:1041080000E00023FB614FF000024FF00003D7E905
:104118000801FCF7C1FC0346002B06D04FF0000253
:104128004FF00003C7E92A2303E0D7E92223C7E9B0
:104138002A23FB69002B04DDD7E91423C7E92423CC
:1041480003E0D7E91623C7E924234FF000024FF014
:104158000003D7E90801FCF79FFC0346002B06D0B3
:104168004FF000024FF00003C7E9282303E0D7E926
:104178002423C7E928234FF000024FF00003D7E9B2
:104188002801FCF789FC0346002B04D0D7E92A2331
:10419800C7E9262303E0D7E90223C7E926230C4908
:1041A800D7E90223C1E900230A49D7E92A23C1E94B
:1041B80000230949D7E92823C1E900237969D7E908
:1041C8002623C1E9002300BFB437BD4690BD00BF18
:1041D8001008002018080020200800200000F03FE8
:1041E80080B596B000AFF86087ED000B474BD3E978
:1041F8000023C7E90E23464BD3E90023C7E90C2364
:104208004FF00002434BC7E90A234FF00002424B2C
:10421800C7E90823D7E90023D7E90E01FCF7ACF971
:1042280002460B46C7E90623D7E90623D7E90C015E
:10423800FBF7ECFF02460B46C7E904234FF00002E8
:10424800364BD7E90401FCF71DFC0346002B04D0CC
:10425800D7E90A23C7E9142303E0D7E90E23C7E9FE
:1042680014234FF000024FF00003D7E90401FCF7D4
:1042780013FC0346002B04D0D7E90423C7E9102315
:1042880003E0D7E90023C7E910234FF000024FF0FD
:104298000003D7E90401FCF7FFFB0346002B04D019
:1042A800D7E91423C7E9122303E0D7E90823C7E9AC
:1042B80012231649D7E91223C1E900234FF000025F
:1042C8004FF00003D7E90001FCF7BEFB0346002BC3
:1042D8000ED00F494FF000024FF00003C1E9002350
:1042E800F9684FF000024FF00003C1E9002309E02C
:1042F8000749D7E90423C1E90023F968D7E910235E
:10430800C1E9002300BF5837BD4680BD900000209A
:10431800280800200000F0BF0000F03F0080664041
:1043280080B52DED028B8EB000AF394B5B899BB207
:104338001846FCF7A7F802460B46C7E90C23344B8E
:104348009B899BB21846FCF79DF802460B46C7E9C5
:104358000A232F4B9B8A9BB21846FCF793F8024618
:104368000B46C7E90823D7E90A2310461946FCF784
:104378009DFB034619462748FFF7C6FB97ED0C8BB4
:10438800244B1B681846FCF78DF807F1180207F153
:10439800080341EC110BB0EE480AF0EE680A11462A
:1043A8001846FFF7EDFB97ED067B97ED086B07F1D5
:1043B8001003B0EE461AF0EE661AB0EE470AF0EEB9
:1043C800670A1846FFF7C2FD97ED047B3B46B0EE3F
:1043D800470AF0EE670A1846FFF702FFD7E90223FB
:1043E80010461946FCF78AFB0346DAB2084B5A779F
:1043F800D7E9002310461946FCF780FB0346DAB2DA
:10440800034B1A7700BF3837BD46BDEC028B80BD21
:10441800D00700203008002080B483B000AF0346E6
:10442800FB7197F90730002B0CDBFB7903F01F02B7
:10443800074997F907305B09012000FA02F241F8B1
:10444800232000E000BF0C37BD465DF8047B7047B1
:1044580000E100E080B483B000AF0346FB7197F938
:104468000730002B0DDBFB7903F01F02084997F991
:1044780007305B09012000FA02F2203341F82320BB
:1044880000E000BF0C37BD465DF8047B704700BFF5
:1044980000E100E080B483B000AF03463960FB71EF
:1044A8003B6803F00F033B6097F90730002B09DBEB
:1044B8003B68DAB2064997F907301201D2B20B44C9
:1044C80083F8002300BF0C37BD465DF8047B7047B6
:1044D80000E100E080B582B000AF00237B60104BA4
:1044E8005B6C0F4A43F4804353640D4B5B6C03F4DD
:1044F80080437B607B6800233B60094B1B6C084A48
:1045080043F080531364064B1B6C03F080533B60ED
:104518003B68072000F050FE00BF0837BD4680BD4D
:104528000038024080B58AB000AF786007F1140304
:1045380000221A605A609A60DA601A617B681B6808
:10454800174A934227D100233B61164B5B6C154AEF
:1045580043F480735364134B5B6C03F480733B61C7
:104568003B690023FB600F4B1B6B0E4A43F00103B2
:1045780013630C4B1B6B03F00103FB60FB681223F6
:104588007B610323BB610023FB6107F11403194618
:10459800054801F09BF800BF2837BD4680BD00BF25
:1045A80000200140003802400000024080B485B07D
:1045B80000AF78607B681B68B3F1804F0DD1002392
:1045C800FB60094B1B6C084A43F001031364064B5C
:1045D8001B6C03F00103FB60FB6800BF1437BD468A
:1045E8005DF8047B704700BF0038024080B400AF1C
:1045F80000BFFDE780B400AF00BFFDE780B400AFA7
:1046080000BFFDE780B400AF00BFFDE780B400AF96
:1046180000BFFDE780B400AF00BFBD465DF8047B76
:10462800704780B400AF00BFBD465DF8047B70479B
:1046380080B400AF00BFBD465DF8047B704780B50D
:1046480000AF00F067F800BF80BD000080B400AF85
:10465800064BD3F88830054A43F47003C2F8883013
:1046680000BFBD465DF8047B704700BF00ED00E069
:1046780080B500AF0E4B1B680D4A43F400731360FE
:104688000B4B1B680A4A43F480631360084B1B6892
:10469800074A43F480731360032000F08DFD002067
:1046A80000F008F8FFF716FF0023184680BD00BF8A
:1046B800003C024080B582B000AF7860124B1A68A7
:1046C800124B1B7819464FF47A73B3FBF1F3B2FB24
:1046D800F3F3184600F097FD0346002B01D00123A1
:1046E8000EE07B680F2B0AD8002279684FF0FF3064
:1046F80000F06DFD064A7B681360002300E001238B
:1047080018460837BD4680BD98000020A00000204C
:104718009C00002080B400AF064B1B781A46064B5D
:104728001B681344044A136000BFBD465DF8047B50
:10473800704700BFA00000203408002080B400AFFC
:10474800034B1B681846BD465DF8047B704700BFE5
:104758003408002080B584B000AF78600023FB7374
:104768007B68002B01D1012333E07B681B6C002B95
:1047780009D17868FFF7D6FE7B6800225A647B6807
:10478800002283F83C207B681B6C03F01003002B8D
:1047980018D17B681B6C23F4885323F0020343F081
:1047A80002027B681A64786800F0D6FA7B680022F7
:1047B8005A647B681B6C23F0030343F001027B6897
:1047C8001A6401E00123FB737B68002283F83C2014
:1047D800FB7B18461037BD4680BD000080B588B009
:1047E80000AFF860B9607A6000237B610023FB7733
:1047F800FB6893F83C30012B01D10223EBE0FB6806
:10480800012283F83C20FB681B689B6803F00103C6
:10481800012B18D0FB681B689A68FB681B6842F07C
:1048280001029A606E4B1B686E4AA2FB03239A0C26
:1048380013465B0013447B6102E07B69013B7B61AB
:104848007B69002BF9D1FB681B689B6803F48073B4
:10485800B3F5807F07D1FB681B689A68FB681B6803
:1048680022F480729A60FB681B689B6803F001035E
:10487800012B40F0A380FB681B6C23F4E06323F05A
:10488800010343F48072FB681A64FB681B685B6869
:1048980003F48063002B07D0FB681B6C23F44053A0
:1048A80043F48052FB681A64FB681B6C03F4805362
:1048B800B3F5805F06D1FB685B6C23F00602FB68EA
:1048C8005A6402E0FB6800225A64FB68002283F8FD
:1048D8003C20454BBB61FB689B6B444ADA63FB6831
:1048E8009B6B434A1A64FB689B6B424ADA64FB6819
:1048F8001B686FF022021A60FB681B685A68FB6825
:104908001B6842F080625A60FB681B689A68FB6803
:104918001B6842F480729A60FB68986BFB681B689E
:104928004C331946BA687B6800F028FD0346FB77CC
:10493800BB695B6803F01F03002B2AD1FB681B6867
:104948002D4A934215D0FB681B682C4A934205D127
:10495800254B5B6803F01F03002B0AD0FB681B681C
:10496800274A934236D1204B5B6803F01003002B93
:1049780030D1FB681B689B6803F04053002B29D19A
:10498800FB681B689A68FB681B6842F080429A6063
:1049980020E0FB681B68184A93421BD1FB681B6820
:1049A8009B6803F04053002B14D1FB681B689A687E
:1049B800FB681B6842F080429A600BE0FB681B6C46
:1049C80043F01002FB681A64FB685B6C43F0010259
:1049D800FB685A64FB7F18462037BD4680BD00BF80
:1049E8009800002083DE1B4300230140594F000834
:1049F800135000082F5000080020014000210140FA
:104A08000022014080B584B000AF78600023FB73BA
:104A18007B6893F83C30012B01D1022348E07B6886
:104A2800012283F83C207B681B689A687B681B68B6
:104A380022F001029A607B681B689B6803F00103FF
:104A4800002B30D17B681B689A687B681B6822F44E
:104A580080729A607B689B6B93F83530DBB2022BCF
:104A68000FD17B689B6B184600F0E0FC0346FB7394
:104A7800FB7B002B05D07B681B6C43F040027B68F6
:104A88001A647B681B685A687B681B6822F080621E
:104A98005A607B681B6C23F4885323F0010343F0AE
:104AA80001027B681A647B68002283F83C20FB7B48
:104AB80018461037BD4680BD80B483B000AF78601B
:104AC80000BF0C37BD465DF8047B704780B483B0E7
:104AD80000AF786000BF0C37BD465DF8047B7047B7
:104AE80080B483B000AF786000BF0C37BD465DF876
:104AF800047B704780B485B000AF786039600023CC
:104B0800BB607B6893F83C30012B01D1022313E191
:104B18007B68012283F83C203B681B68092B25D958
:104B28007B681B68D9683B681B689BB21A461346AA
:104B38005B0013441E3B072202FA03F3DA437B6847
:104B48001B680A40DA607B681B68D9683B689A680A
:104B58003B681B689BB2184603465B0003441E3B38
:104B68009A407B681B680A43DA6022E07B681B680E
:104B780019693B681B689BB21A4613465B001344CD
:104B8800072202FA03F3DA437B681B680A401A61BA
:104B98007B681B6819693B689A683B681B689BB20D
:104BA800184603465B0003449A407B681B680A4327
:104BB8001A613B685B68062B24D87B681B68596BB5
:104BC8003B685A6813469B001344053B1F2202FAB0
:104BD80003F3DA437B681B680A405A637B681B68E7
:104BE800596B3B681B689BB218463B685A6813466A
:104BF8009B001344053B00FA03F27B681B680A43D9
:104C08005A634CE03B685B680C2B24D87B681B68B4
:104C1800196B3B685A6813469B001344233B1F22B9
:104C280002FA03F3DA437B681B680A401A637B685D
:104C38001B68196B3B681B689BB218463B685A682F
:104C480013469B001344233B00FA03F27B681B685E
:104C58000A431A6323E07B681B68D96A3B685A6871
:104C680013469B001344413B1F2202FA03F3DA4325
:104C78007B681B680A40DA627B681B68D96A3B68F4
:104C88001B689BB218463B685A6813469B0013443E
:104C9800413B00FA03F27B681B680A43DA62294B3E
:104CA800FB607B681B68284A93420FD13B681B68EE
:104CB800122B0BD1FB685B6823F40002FB685A6077
:104CC800FB685B6843F48002FB685A607B681B687A
:104CD8001D4A93422BD13B681B681C4A934203D060
:104CE8003B681B68112B22D1FB685B6823F48002A8
:104CF800FB685A60FB685B6843F40002FB685A6013
:104D08003B681B68114A934211D1114B1B68114A29
:104D1800A2FB03239A0C13469B0013445B00BB6061
:104D280002E0BB68013BBB60BB68002BF9D17B6824
:104D3800002283F83C20002318461437BD465DF84E
:104D4800047B70470023014000200140120000103E
:104D58009800002083DE1B4380B485B000AF7860E4
:104D6800794BFB60FB685B6823F44032FB685A6050
:104D7800FB685A687B685B681A43FB685A607B6803
:104D88001B685A687B681B6822F480725A607B68CB
:104D98001B6859687B681B691A027B681B680A4391
:104DA8005A607B681B685A687B681B6822F04072EF
:104DB8005A607B681B6859687B689A687B681B68BF
:104DC8000A435A607B681B689A687B681B6822F4F0
:104DD80000629A607B681B6899687B68DA687B6800
:104DE8001B680A439A607B689B6A584A934222D0A0
:104DF8007B681B689A687B681B6822F070629A60FF
:104E08007B681B6899687B689A6A7B681B680A4399
:104E18009A607B681B689A687B681B6822F040521E
:104E28009A607B681B6899687B68DA6A7B681B688C
:104E38000A439A600FE07B681B689A687B681B6866
:104E480022F070629A607B681B689A687B681B68AE
:104E580022F040529A607B681B689A687B681B68DE
:104E680022F002029A607B681B6899687B681B7E47
:104E78005A007B681B680A439A607B6893F8203065
:104E8800002B1BD07B681B685A687B681B6842F440
:104E980000625A607B681B685A687B681B6822F44A
:104EA80060425A607B681B6859687B685B6A013B93
:104EB8005A037B681B680A435A6007E07B681B68D3
:104EC8005A687B681B6822F400625A607B681B681A
:104ED800DA6A7B681B6822F47002DA627B681B68F6
:104EE800D96A7B68DB69013B1A057B681B680A4342
:104EF800DA627B681B689A687B681B6822F4007218
:104F08009A607B681B6899687B6893F830305A020E
:104F18007B681B680A439A607B681B689A687B6891
:104F28001B6822F480629A607B681B6899687B68BA
:104F38005B699A027B681B680A439A6000BF143752
:104F4800BD465DF8047B7047002301400100000F57
:104F580080B584B000AF78607B689B6BFB60FB68B2
:104F68001B6C03F05003002B3CD1FB681B6C43F413
:104F78000072FB681A64FB681B689B6803F0405367
:104F8800002B2BD1FB681B7E002B27D1FB681B68ED
:104F9800DB6A03F47003002B06D0FB681B689B6870
:104FA80003F48063002B19D1FB681B685A68FB68FF
:104FB8001B6822F020025A60FB681B6C23F4807285
:104FC800FB681A64FB681B6C03F48053002B05D143
:104FD800FB681B6C43F00102FB681A64F868FFF772
:104FE8006BFD0EE0FB681B6C03F01003002B03D075
:104FF800F868FFF775FD04E0FB689B6BDB6C78686D
:10500800984700BF1037BD4680BD80B584B000AF5B
:1050180078607B689B6BFB60F868FFF757FD00BF03
:105028001037BD4680BD80B584B000AF78607B681E
:105038009B6BFB60FB6840221A64FB685B6C43F067
:105048000402FB685A64F868FFF74AFD00BF10378E
:10505800BD4680BD80B485B000AF78607B6803F042
:105068000703FB600C4BDB68BB60BA684FF6FF03B5
:105078001340BB60FB681A02BB68134343F0BF636D
:1050880043F40033BB60044ABB68D36000BF1437E5
:10509800BD465DF8047B704700ED00E080B400AFCA
:1050A800044BDB681B0A03F007031846BD465DF88E
:1050B800047B704700ED00E080B483B000AF034686
:1050C8003960FB7197F90730002B0ADB3B68DAB2CD
:1050D8000C4997F907301201D2B20B4483F8002328
:1050E8000AE03B68DAB20849FB7903F00F03043B96
:1050F8001201D2B20B441A7600BF0C37BD465DF8D8
:10510800047B704700E100E000ED00E080B489B066
:1051180000AFF860B9607A60FB6803F00703FB61D1
:10512800FB69C3F10703042B28BF0423BB61FB6998
:105138000433062B02D9FB69033B00E000237B61A3
:105148004FF0FF32BB6902FA03F3DA43BB681A4037
:105158007B699A404FF0FF317B6901FA03F3D94329
:105168007B680B40134318462437BD465DF8047B23
:105178007047000080B582B000AF78607B68013B63
:10518800B3F1807F01D301230FE00A4A7B68013B1A
:1051980053600F214FF0FF30FFF78EFF054B0022C1
:1051A8009A60044B07221A60002318460837BD4648
:1051B80080BD00BF10E000E080B582B000AF78602D
:1051C8007868FFF747FF00BF0837BD4680BD80B548
:1051D80086B000AF0346B9607A60FB7300237B6139
:1051E800FFF75CFF78617A68B9687869FFF78EFF26
:1051F800024697F90F3011461846FFF75DFF00BFCA
:105208001837BD4680BD80B582B000AF7860786839
:10521800FFF7B0FF034618460837BD4680BD0000BB
:1052280080B586B000AF786000237B61FFF786FA0F
:1052380038617B68002B01D1012399E07B68022249
:1052480083F835207B68002283F834207B681B684C
:105258001A687B681B6822F001021A600FE0FFF7EA
:105268006DFA02463B69D31A052B08D97B682022C0
:105278005A657B68032283F83520032378E07B682E
:105288001B681B6803F00103002BE8D17B681B68CF
:105298001B687B617A69384B13407B617B685A686D
:1052A8007B689B681A437B68DB681A437B681B69C9
:1052B8001A437B685B691A437B689B691A437B685E
:1052C800DB691A437B681B6A13437A6913437B6162
:1052D8007B685B6A042B07D17B68DA6A7B681B6B87
:1052E80013437A6913437B617B681B687A691A6088
:1052F8007B681B685B697B617B6923F007037B61C3
:105308007B685B6A7A6913437B617B685B6A042B01
:1053180017D17B689B6A7A6913437B617B68DB6A78
:10532800002B0ED0786800F055F90346002B08D002
:105338007B6840225A657B68012283F83520012367
:1053480016E07B681B687A695A61786800F00CF986
:105358000346FB607B68DB6D3F229A40FB689A60DE
:105368007B6800225A657B68012283F83520002378
:1053780018461837BD4680BD3F8010F080B586B00E
:1053880000AFF860B9607A603B600023FB75FB688A
:105398009B6D3B61FB6893F83430012B01D10223EC
:1053A80040E0FB68012283F83420FB6893F835302D
:1053B800DBB2012B2FD1FB68022283F83520FB6872
:1053C80000225A653B687A68B968F86800F09EF868
:1053D800FB68DB6D3F229A403B699A60FB681B685B
:1053E8001A68FB681B6842F016021A60FB681B6C9F
:1053F800002B07D0FB681B681A68FB681B6842F023
:1054080008021A60FB681B681A68FB681B6842F090
:1054180001021A6005E0FB68002283F834200223A9
:10542800FB75FB7D18461837BD4680BD80B584B036
:1054380000AF78607B689B6DFB60FFF77FF9B86011
:105448007B6893F83530DBB2022B08D07B6880226A
:105458005A657B68002283F83420012352E07B6878
:105468001B681A687B681B6822F016021A607B6842
:105478001B685A697B681B6822F080025A617B6846
:105488001B6C002B03D17B689B6C002B07D07B68BF
:105498001B681A687B681B6822F008021A607B6820
:1054A8001B681A687B681B6822F001021A6013E007
:1054B800FFF744F90246BB68D31A052B0CD97B6861
:1054C80020225A657B68032283F835207B680022F6
:1054D80083F83420032315E07B681B681B6803F0FE
:1054E8000103002BE4D17B68DB6D3F229A40FB6807
:1054F8009A607B68012283F835207B68002283F854
:105508003420002318461037BD4680BD80B485B0CE
:1055180000AFF860B9607A603B60FB681B681A6886
:10552800FB681B6822F480221A60FB681B683A68D3
:105538005A60FB689B68402B08D1FB681B687A6837
:105548009A60FB681B68BA68DA6007E0FB681B684A
:10555800BA689A60FB681B687A68DA6000BF14371B
:10556800BD465DF8047B704780B485B000AF7860B5
:105578007B681B68DBB2103B144AA2FB03231B09A0
:10558800FB60134AFB6813441B781A467B68DA658C
:10559800FB68032B09D97B681B6823F47F7323F00E
:1055A80003031A1D7B689A6507E07B681B6823F470
:1055B8007F7323F003037A6893657B689B6D1846B5
:1055C8001437BD465DF8047B704700BFABAAAAAA92
:1055D8003073000880B485B000AF78600023FB7397
:1055E8007B689B6ABB607B689B69002B1FD1BB688B
:1055F800032B56D801A252F823F000BF1556000815
:105608002756000815560008AB5600087B68DB6A69
:1056180003F08073002B46D00123FB7343E07B68C3
:10562800DB6AB3F1C07F40D10123FB733DE07B68A7
:105638009B69B3F5005F21D1BB68032B37D801A262
:1056480052F823F05D560008635600085D560008BE
:10565800755600080123FB7330E07B68DB6A03F0B2
:105668008073002B25D00123FB7322E07B68DB6A63
:10567800B3F1C07F1FD10123FB731CE0BB68022B71
:1056880003D9BB68032B03D018E00123FB7315E093
:105698007B68DB6A03F08073002B0ED00123FB7359
:1056A8000BE000BF0AE000BF08E000BF06E000BF53
:1056B80004E000BF02E000BF00E000BFFB7B18462B
:1056C8001437BD465DF8047B704700BF80B489B0CD
:1056D80000AF7860396000237B6100233B610023C1
:1056E800BB610023FB6165E10122FB6902FA03F358
:1056F8007B613B681B687A6913403B613A697B6947
:105708009A4240F054813B685B6803F00303012B25
:1057180005D03B685B6803F00303022B30D17B683C
:105728009B68BB61FB695B00032202FA03F3DB435E
:10573800BA691340BB613B68DA68FB695B0002FA2F
:1057480003F3BA691343BB617B68BA699A607B68E3
:105758005B68BB610122FB6902FA03F3DB43BA69A8
:105768001340BB613B685B681B0903F00102FB69DE
:1057780002FA03F3BA691343BB617B68BA695A60DA
:105788003B685B6803F00303032B17D07B68DB6877
:10579800BB61FB695B00032202FA03F3DB43BA69CE
:1057A8001340BB613B689A68FB695B0002FA03F32C
:1057B800BA691343BB617B68BA69DA603B685B68A6
:1057C80003F00303022B23D1FB69DA087B68083254
:1057D80053F82230BB61FB6903F007039B000F22DB
:1057E80002FA03F3DB43BA691340BB613B681A69E9
:1057F800FB6903F007039B0002FA03F3BA6913433A
:10580800BB61FB69DA087B680832B96943F8221082
:105818007B681B68BB61FB695B00032202FA03F328
:10582800DB43BA691340BB613B685B6803F0030262
:10583800FB695B0002FA03F3BA691343BB617B6837
:10584800BA691A603B685B6803F44033002B00F0C8
:10585800AE800023FB605D4B5B6C5C4A43F4804385
:1058680053645A4B5B6C03F48043FB60FB68584AF3
:10587800FB699B08023352F82330BB61FB6903F0D4
:1058880003039B000F2202FA03F3DB43BA691340B8
:10589800BB617B684F4A934225D07B684E4A93424E
:1058A8001FD07B684D4A934219D07B684C4A93427B
:1058B80013D07B684B4A93420DD07B684A4A934287
:1058C80007D07B68494A934201D106230CE007239D
:1058D8000AE0052308E0042306E0032304E002238A
:1058E80002E0012300E00023FA6902F003029200BB
:1058F8009340BA691343BB613549FB699B0802337E
:10590800BA6941F823203A4B9B68BB613B69DB438A
:10591800BA691340BB613B685B6803F48013002BD2
:1059280003D0BA693B691343BB61314ABB699360D1
:105938002F4BDB68BB613B69DB43BA691340BB6132
:105948003B685B6803F40013002B03D0BA693B691A
:105958001343BB61264ABB69D360254B5B68BB61B7
:105968003B69DB43BA691340BB613B685B6803F47E
:105978000033002B03D0BA693B691343BB611C4A4F
:10598800BB6953601A4B1B68BB613B69DB43BA694F
:105998001340BB613B685B6803F48033002B03D082
:1059A800BA693B691343BB61114ABB691360FB6960
:1059B8000133FB61FB690F2B7FF696AE00BF00BF7A
:1059C8002437BD465DF8047B704700BF00380240AD
:1059D8000038014000000240000402400008024074
:1059E800000C02400010024000140240001802405F
:1059F800003C014080B485B000AF78600B467B80E6
:105A08007B681A697B881340002B02D00123FB7343
:105A180001E00023FB73FB7B18461437BD465DF895
:105A2800047B704780B483B000AF78600B467B80FE
:105A380013467B707B78002B03D07A887B689A6149
:105A480003E07B881A047B689A6100BF0C37BD4667
:105A58005DF8047B7047000080B584B000AF7860C3
:105A680039607B68002B01D10123CCE0684B1B68AF
:105A780003F00F033A689A420CD9654B3A68D2B2E0
:105A88001A70634B1B6803F00F033A689A4201D0FF
:105A98000123B8E07B681B6803F00203002B20D0C9
:105AA8007B681B6803F00403002B05D0594B9B68E7
:105AB800584A43F4E05393607B681B6803F008037B
:105AC800002B05D0534B9B68524A43F460439360C4
